:100000000C946E000C9496000C9496000C94180CB2
:100010000C943C0C0C94600C0C9496000C94960080
:100020000C9496000C9496000C9496000C94E80A9C
:100030000C9496000C9496000C9496000C949600E8
:100040000C943E120C9496000C94420F0C94890F61
:100050000C9496000C9496000C9496000C949600C8
:100060000C94AD0D0C9496000000000024002700B5
:100070002A0000000000250028002B0000000000DE
:1000800023002600290004040404040404040202DA
:100090000202020203030303030301020408102007
:1000A0004080010204081020010204081020000012
:1000B0000007000201000003040600000000000029
:1000C000000098005301B102BC02C702D602E1024F
:1000D000EC0215031C03EA0C7A10D61011241FBE83
:1000E000CFEFD8E0DEBFCDBF11E0A0E0B1E0E6E2A7
:1000F000F9E202C005900D92AC3EB107D9F716E0C7
:10010000ACEEB1E001C01D92AC3AB107E1F710E0EE
:10011000CCEDD0E004C02297FE010E948D14C23CB9
:10012000D107C9F70E942F120C9491140C9400006F
:100130000895FC01A081B181648175812D913C916C
:10014000F90109950895FC0177FF03C060E070E0B4
:1001500006C06F3F710519F014F06FEF70E08681F3
:100160000E943D130895FF920F931F938C01F62E6A
:100170000E94870284EA91E0F80191838083F682ED
:100180001F910F91FF900895FC01A081B1816481BE
:1001900075812D913C91F90109950895FC0190E03C
:1001A000672B09F091E08681692F0E94F013089572
:1001B000FF920F931F938C01F62E0E9487028EEA06
:1001C00091E0F80191838083F6821F910F91FF9057
:1001D00008958091EC018823A1F18091EE01823095
:1001E000B9F0833028F4882341F0813041F508C00C
:1001F0008330B1F0843019F51BC00E940C021FC07F
:100200006091ED01862F90E070E00E94F10117C02F
:100210006091ED01862F90E070E00E94D6010FC042
:100220006091ED01862F90E070E00E94BB0107C055
:100230006091ED01862F90E070E00E94A001109285
:10024000EC0108950F931F930EE715E0C80162E0DB
:1002500070E00E94810DC8016DE671E00E94E50C1E
:100260001092EC011F910F910895AC0120E030E055
:10027000FA01E20FF31F8081882329F02F5F3F4F9F
:1002800020343105A9F70895E0E0F1E0808188236A
:1002900029F0319681E0E034F807C1F70895089518
:1002A0000895089508958FEE91E06DE00E94D800C2
:1002B00086EF91E067E00E94D8008DEF91E064E066
:1002C0000E94D80084E092E066E00E94B3008BE0D8
:1002D00092E065E00E94B300089506C08EE795E0C5
:1002E0000E948D0C8093EE018EE795E00E94840CB5
:1002F0000297A4F78EE795E00E948D0C8093ED01A4
:1003000081E08093EC0108950E9419020E94E900A7
:1003100008958DE061E00E949D1386E061E00E94F7
:100320009D1385E061E00E949D1387E061E00E94DB
:100330009D1384E061E00E949D130E9422010895B4
:100340000F931F939C018B0186E0B9010E943D131E
:1003500087E061E00E94F01385E0B8010E943D1340
:1003600084E060E00E94F01385E091E00E94350196
:100370001F910F9108950F931F939C018B0186E0AD
:10038000B9010E943D1387E060E00E94F01385E010
:10039000B8010E943D1384E061E00E94F01380E107
:1003A00091E00E9435011F910F9108950F931F93C3
:1003B0009C018B0186E0B9010E943D1387E060E05B
:1003C0000E94F01385E0B8010E943D1384E060E0D4
:1003D0000E94F0138AE191E00E9435011F910F9174
:1003E00008950F931F939C018B0186E0B9010E9431
:1003F0003D1387E061E00E94F01385E0B8010E94A0
:100400003D1384E061E00E94F01384E291E00E94D9
:1004100035011F910F91089586E060E00E94F0136E
:1004200085E060E00E94F0138CE291E00E943501CB
:1004300008958091120290911302892BB9F187E0FF
:100440000E941B13855893400CF460C080911202E7
:100450009091130283309105A9F08430910534F412
:100460008130910549F00297B1F409C084309105BB
:1004700061F0059781F40CC00E94440112C00E94F3
:100480004F010FC00E9450010CC00E94510109C0D1
:100490000E94520106C08EE796E065E371E00E947B
:1004A0001C121092130210921202089587E00E940B
:1004B0001B138558934054F562E370E080E090E0B0
:1004C0000E94BA1287E00E941B13AC01E1E9F1E03F
:1004D00020E030E0808191812F5F3F4F481759071E
:1004E00010F4C90106C032962530310599F78FEF17
:1004F0009FEF90931302809312020197059730F0BB
:100500008EE796E06AE571E00E941C120895FC01F6
:1005100088EB91E09183808313821282158214828A
:100520000895FC01A281B381109741F0ED91FC91F7
:1005300011970190F081E02DCD0109950895FC01FE
:10054000A281B381109741F0ED91FC911197048045
:10055000F581E02DCD0109950895FC017383628337
:1005600008950F9384E192E060E040E020E000E035
:100570000E94CA100F9108950F938AE192E060E003
:1005800040E020E000E00E94CA100F9108950F9310
:1005900086E292E060E040E020E000E00E94CA10C5
:1005A00080E292E00E9427110F9108950F938CE250
:1005B00092E060E040E020E000E00E94CA100F916D
:1005C00008950F9382E392E060E040E020E000E0D5
:1005D0000E94CA100F9108950F9388E392E060E0A3
:1005E00040E020E000E00E94CA100F910895FC0155
:1005F000158216821782DC0180E018961C921897EB
:100600008F5F11968032C9F710A612A611A605A811
:10061000F6A9E02D309709F009950895FC01718342
:10062000608312820E94F70208958EE392E06EE7E3
:1006300076E00E940E03089510927E0210927F02CF
:10064000109282021092840282E090E0A0E0B0E07A
:100650008093850290938602A0938702B0938802CC
:1006600010929C021092A6021092A50282EC91E0D8
:100670009093A4028093A3021092A8020895FF927F
:100680000F931F93CF93DF938B010E948612EB0190
:10069000FF24FA94FEBC0DB407FEFDCF8EB58F3F4C
:1006A00011F481E008C00E9486126C1B7D0B60175C
:1006B000710780F380E0DF91CF911F910F91FF9040
:1006C0000895FC01848160E00E94F0130895FC010C
:1006D000848161E00E94F0130895DC016EBDFA018F
:1006E00020E030E00DB407FEFDCF80818EBD0DB45B
:1006F00007FEFDCF81818EBD2E5F3F4F329682E097
:100700002030380779F70DB407FEFDCF8FEF8EBD8F
:100710000DB407FEFDCF8FEF8EBD0DB407FEFDCFEC
:100720008FEF8EBD0DB407FEFDCF8EB51A968C935C
:100730001A978F71853011F481E0089581E1159643
:100740008C931597CD010E94670380E00895FF9276
:100750000F931F93CF93DF93EC010E9486128B01BE
:10076000FF24FA9409C00E948612601B710B6D521F
:10077000714010F08FE00DC0FEBC0DB407FEFDCF40
:100780008EB58A878F3F79F38E3F11F481E006C0E2
:100790008DE08D83CE010E94670380E0DF91CF91D1
:1007A0001F910F91FF900895CF93DF93EC018E81FD
:1007B0008823D1F08FEF8EBD2F8138854FEF04C095
:1007C0000DB407FEFDCF4EBD2F5F3F4FC90101970E
:1007D00081509240A8F338872F830DB407FEFDCFD8
:1007E000CE010E9467031E82DF91CF910895DF92B0
:1007F000EF92FF920F931F93CF93DF93EC01D62ECE
:1008000079018A010E94D403CE010E946103CE01C6
:100810006CE271E00E943F038D2D80648EBD0DB4AB
:1008200007FEFDCF28E130E0D801C701022E04C049
:10083000B695A795979587950A94D2F78EBD0DB476
:1008400007FEFDCF285030408FEF283F380761F773
:10085000DD2011F485E906C088E0D81611F487E898
:1008600001C08FEF8EBD0DB407FEFDCF90E02FEFDE
:100870002EBD0DB407FEFDCF8EB587FF02C091508F
:10088000B9F78A87DF91CF911F910F91FF90EF9079
:10089000DF900895CF92DF92EF92FF920F931F9314
:1008A000CF93DF93EC017A018B016901411551056A
:1008B0006105710511F482E137C08B85833039F011
:1008C00029E0EE0CFF1C001F111F2A95D1F7CE0165
:1008D00068E1A80197010E94F703882311F084E0E2
:1008E00023C0CE016EEFA6010E946D038823E9F0BC
:1008F000CE0168E572E00E943F03882311F485E190
:1009000013C0CE016DE020E030E040E050E00E94F6
:10091000F703882341F48FEF8EBD0DB407FEFDCFA2
:100920008EB5882379F084E18D83CE010E94670320
:1009300080E0DF91CF911F910F91FF90EF90DF90BA
:10094000CF900895CE010E94670381E0F2CF8F928D
:100950009F92AF92BF92CF92DF92EF92FF920F934E
:100960001F93CF93DF93EC015A016B0149010115ED
:10097000110509F47BC0C801820F931F815092407A
:1009800008F06FC08E81882371F088819981AA81D7
:10099000BB81481759076A077B0729F48F8198851F
:1009A0008816990618F5A882B982CA82DB828B85DF
:1009B000833039F069E0AA0CBB1CCC1CDD1C6A95A5
:1009C000D1F7CE0161E1A60195010E94F7038823CA
:1009D00019F083E08D8345C0CE010E94A7038823D0
:1009E00009F43FC018861F8281E08E838FEF8EBD91
:1009F0008F8198852FEF05C00DB407FEFDCF2EBD6A
:100A0000019688159905C0F398878F83D8011197AF
:100A100020E030E09FEF0BC00DB407FEFDCF8EB598
:100A2000F701E20FF31F80839EBD2F5F3F4F2A1710
:100A30003B0790F30DB407FEFDCF8EB5AE0DBF1D85
:100A40008C932F813885200F311F38872F8389851C
:100A5000882319F02050324048F0CE010E94D40380
:100A600005C0CE010E94670380E001C081E0DF91F4
:100A7000CF911F910F91FF90EF90DF90CF90BF909B
:100A8000AF909F908F900895EF92FF920F931F93D6
:100A9000790120E030E000E012E00E94A7041F91FD
:100AA0000F91FF90EF9008956F927F928F929F9297
:100AB000AF92BF92CF92DF92EF92FF920F931F936C
:100AC000CF93DF93EC017A018B012D81222309F46E
:100AD00080C08B899C89AD89BE8984179507A6073C
:100AE000B70708F476C085C0E114F10401051105CB
:100AF00049F41E821F82188619861A861B861C8658
:100B00001D8665C02A853B854C855D85EB8DFC8DFA
:100B1000858590E009962150304040405040390191
:100B20004A01082E04C096948794779467940A9497
:100B3000D2F72F5F3F4F4F4F5F4F0894E108F10806
:100B4000010911095701680104C0D694C794B794EC
:100B5000A7948A95D2F70894E11CF11C011D111D80
:100B6000A614B704C804D90428F02115310541059D
:100B7000510549F48F89988DA98DBA8D8E839F83F5
:100B8000A887B98716C0A618B708C808D90811C021
:100B90004E815F81688579858B8D9C8D94010E9443
:100BA00066090894A108B108C108D108882331F466
:100BB00010C086E0882E912C8C0E9D1EA114B104CD
:100BC000C104D10429F7EA86FB860C871D8781E0E2
:100BD00001C080E0DF91CF911F910F91FF90EF90C6
:100BE000DF90CF90BF90AF909F908F907F906F904D
:100BF0000895223009F078CFE6CFCF93DF93EC0150
:100C0000462F6E857F85888999890E948F08882361
:100C100019F420E030E00AC08A89282F30E095E0FE
:100C2000220F331F9A95E1F72C533D4FC901DF91F5
:100C3000CF9108950F931F93CF93DF938C01FC0105
:100C400085818823D9F1848187FF35C0C80161E09F
:100C50000E94FD05EC01009789F1F8018581823041
:100C600040F483899489A589B6898C8F9D8FAE8F36
:100C7000BF8FF8018789908D9B8F8A8F8789908D90
:100C8000A18DB28DCD01AA27BB279D8B8C8BE091C6
:100C9000C202F091C302309751F0BE016A5E7F4FED
:100CA000CE0148960995888D998D9B8B8A8BF8018A
:100CB00084818F7784830E94540801C080E0DF9193
:100CC000CF911F910F910895CF93DF93EC019C0179
:100CD0002A5F3F4F8B8D9C8D41E050E060E070E0DB
:100CE0000E94D9098823A1F08F89988DA98DBA8D8A
:100CF0000097A105B10559F48E819F81A885B9851A
:100D00008F8B988FA98FBA8F8C8180688C8381E0BC
:100D1000DF91CF9108952F923F924F925F927F92F1
:100D20008F929F92AF92BF92CF92DF92EF92FF92FB
:100D30000F931F93DF93CF9300D000D000D0CDB797
:100D4000DEB76C01162F072F5E834D83DC011596ED
:100D50008C911597813009F070C114968C9181FFA8
:100D60006CC18EC1F6014389548965897689828573
:100D70009385A485B58584179507A607B70731F035
:100D8000C6010E945405882309F457C1812F902F72
:100D90009C0129012D803E8017C1D6015B96ED9103
:100DA000FC915C97DA01C90119E0B695A795979572
:100DB00087951A95D1F774807A9478227FEF872EE1
:100DC00071E0972E82229322772009F04EC0811481
:100DD000910409F04AC0D60116964D915D916D912E
:100DE0007C911997411551056105710581F457965C
:100DF0008D919D910D90BC91A02D0097A105B105FD
:100E000049F1F60186839783A087B1872EC0CF0171
:100E10009E012F5F3F4F0E946609882309F414C189
:100E200029813A814B815C81D6015B96ED91FC91E1
:100E30005C978789803129F088EF9FEFAFEFBFE0A3
:100E400004C088EF9FEFA0E0B0E0281739074A07F9
:100E50005B0730F0C6010E946406882331F4EDC0C0
:100E6000F601268337834087518780E092E0881916
:100E7000990951018215930508F45C01D6015B962E
:100E8000ED91FC915C971696ED90FD900D911C9163
:100E900019978EEF9FEFAFEFBFEFE80EF91E0A1F15
:100EA0001B1F058404C0EE0CFF1C001F111F0A94B9
:100EB000D2F786859785A089B189E80EF91E0A1FA9
:100EC0001B1FE70CF11C011D111D90E0A91692E0FB
:100ED000B90651F580919B0190919C01A0919D01D3
:100EE000B0919E018E159F05A007B10761F48FEFA9
:100EF0009FEFAFEFBFEF80939B0190939C01A09376
:100F00009D01B0939E018091C4049091C504B801E5
:100F1000A70192010E944A04882309F48EC0A0E030
:100F2000B2E04A0E5B1E3EC08114910409F5F60141
:100F3000228533854485558583899489A589B68919
:100F4000281739074A075B0798F00E94540888233E
:100F500009F473C0E0929B01F0929C0100939D0103
:100F600010939E018091C60481608093C60408C0DE
:100F7000C801B70141E00E948F08882309F45DC0D1
:100F800094012C533D4FA9014A0D5B1DD201F9017B
:100F900002C08D918193E417F507D9F7E21BF30B9B
:100FA0004E0E5F1E2A183B08950140E050E0F60106
:100FB00082859385A485B585820F931FA41FB51FD5
:100FC00082879387A487B587D6011A962D913D9184
:100FD0004D915C911D972114310409F0DECE53969A
:100FE0008D919D910D90BC91A02D82179307A40720
:100FF000B50748F4F601238B348B458B568B8481DF
:101000008068848311C08091C2029091C302892BB1
:1010100059F08D819E81892B39F0D60114968C91DF
:101020001497806814968C93F601848183FF0EC018
:10103000C6010E941A06882349F481E090E0D60197
:1010400013969C938E9312971E821D828D819E8192
:1010500026960FB6F894DEBF0FBECDBFCF91DF91BD
:101060001F910F91FF90EF90DF90CF90BF90AF90C6
:101070009F908F907F905F904F903F902F9008951A
:1010800082FD70CE83CEDF93CF930F92CDB7DEB7C4
:101090006983BE016F5F7F4F41E050E00E948B0685
:1010A0000F90CF91DF9108958091C604882399F124
:1010B00040919B0150919C0160919D0170919E0116
:1010C0008091C4049091C50424EC32E00E944A044B
:1010D000882319F14091C7045091C8046091C90454
:1010E0007091CA04411551056105710591F0809117
:1010F000C4049091C50424EC32E00E944A04882381
:1011000061F01092C7041092C8041092C9041092A2
:10111000CA041092C60481E0089580E00895DF9229
:10112000EF92FF920F931F937B018C01D42E80913D
:101130009B0190919C01A0919D01B0919E018E1503
:101140009F05A007B107C1F00E9454088823D9F079
:101150008091C4049091C504B801A70124EC32E049
:101160000E944405882379F0E0929B01F0929C0153
:1011700000939D0110939E018091C6048D29809358
:10118000C60481E001C080E01F910F91FF90EF90B5
:10119000DF9008954F925F926F927F928F929F920D
:1011A000AF92BF92CF92DF92EF92FF920F931F9375
:1011B000CF93DF93EC016A017B01280139014230B2
:1011C00051056105710508F46FC089859A85AB8565
:1011D000BC850196A11DB11D84179507A607B70709
:1011E00008F462C02B893C894D895E898F898031E2
:1011F00029F499278F2D7E2D6D2D09C0C701B601C9
:1012000017E096958795779567951A95D1F74B01D5
:101210005C01820E931EA41EB51E80919B019091CD
:101220009C01A0919D01B0919E0188169906AA0685
:10123000BB0639F0C501B40140E00E948F08882345
:1012400099F18F89803149F4F601F070EE0FFF1F9C
:10125000EC53FD4F518240820DC0F601EF77F070E4
:10126000EE0FFF1FEE0FFF1FEC53FD4F4082518228
:10127000628273828091C60481608093C6048A89E9
:10128000823080F08D819E81AF81B885880E991E55
:10129000AA1EBB1E8092C7049092C804A092C904E3
:1012A000B092CA0481E001C080E0DF91CF911F912C
:1012B0000F91FF90EF90DF90CF90BF90AF909F90F5
:1012C0008F907F906F905F904F900895CF92DF92B4
:1012D000EF92FF920F931F93CF93DF93EC017A016C
:1012E0008B01690189859A85AB85BC850196A11D15
:1012F000B11D84179507A607B70708F450C02B89BE
:101300003C894D895E898F89803129F49927812F05
:10131000702F6F2D09C0C801B701E7E0969587953A
:1013200077956795EA95D1F7260F371F481F591F04
:1013300080919B0190919C01A0919D01B0919E0193
:10134000281739074A075B0739F0CA01B90140E09D
:101350000E948F08882319F18F89803159F4F70191
:10136000F070EE0FFF1FEC53FD4F80819181A0E0E4
:10137000B0E00EC0F701EF77F070EE0FFF1FEE0F39
:10138000FF1FEC53FD4F80819181A281B381BF701B
:10139000F60180839183A283B38381E001C080E062
:1013A000DF91CF911F910F91FF90EF90DF90CF9041
:1013B00008952F923F924F925F926F927F928F92F9
:1013C0009F92AF92BF92CF92DF92EF92FF920F93D4
:1013D0001F93DF93CF93CDB7DEB72F970FB6F89457
:1013E000DEBF0FBECDBF1C014A875B876C877D8740
:1013F0003F872E87D9010D911D912D913C910115AB
:1014000011052105310549F0480159010894811C55
:10141000911CA11CB11C198610C0FC018080918018
:10142000A280B38019868A859B85AC85BD8501978E
:10143000A105B10511F491E09987D10119968D911B
:101440009D910D90BC91A02D0196A11DB11D8D8384
:101450009E83AF83B887750164014424552432010B
:101460008E010F5F1F4FF10181859285A385B485A1
:10147000481659066A067B0608F090C08D819E8149
:10148000AF81B8858C159D05AE05BF0550F482E08F
:10149000882E912CA12CB12CB2E0CB2ED12CE12C9A
:1014A000F12CC101B701A60198010E9466098823A9
:1014B00009F474C089819A81AB81BC81A70196012E
:1014C0002F5F3F4F4F4F5F4F0097A105B10519F0B8
:1014D00049015A010DC0281939094A095B098A8551
:1014E0009B85AC85BD85281739074A075B0759F0EE
:1014F0000894411C511C611C711C0894C11CD11C16
:10150000E11CF11CB0CFC101A601B7010FEF1FEF25
:101510002FEF3FE00E94CA08882399F43FC02601BC
:10152000370108944108510861087108C101B301ED
:10153000A201970186010E94CA08882379F17301EC
:1015400062018C149D04AE04BF0448F3AE85BF85D0
:101550004D915D916D917C9141155105610571052C
:1015600039F0C101950184010E94CA088823B1F0B5
:10157000EE85FF8580829182A282B382F985FF2366
:1015800059F00894811C911CA11CB11CD1018D92B1
:101590009D92AD92BC92139781E001C080E02F969E
:1015A0000FB6F894DEBF0FBECDBFCF91DF911F9174
:1015B0000F91FF90EF90DF90CF90BF90AF909F90F2
:1015C0008F907F906F905F904F903F902F900895F5
:1015D0001F920F920FB60F9211242F933F934F93A8
:1015E0005F936F937F938F939F93AF93BF93EF938B
:1015F000FF938091F00487FF05C010928500109240
:1016000084002BC02091F004332727FD3095809172
:10161000CB0490E02817390704F58091F00499274E
:1016200087FD9095FC01EE0FFF1FE80FF91FE453B3
:10163000FB4F808186FF11C08091F004992787FDC0
:101640009095FC01EE0FFF1FE80FF91FE453FB4FCD
:1016500080818F7360E00E94F0138091F0048F5FAF
:101660008093F0042091F004332727FD309580917A
:10167000CB0490E0281739070CF04EC08091F0049D
:101680008C300CF049C0209184003091850080910D
:10169000F004992787FD9095FC01EE0FFF1FE80FDE
:1016A000F91FE453FB4F81819281280F391F30933A
:1016B0008900209388008091F004992787FD9095F8
:1016C000FC01EE0FFF1FE80FF91FE453FB4F808171
:1016D00086FF2AC08091F004992787FD9095FC0130
:1016E000EE0FFF1FE80FF91FE453FB4F80818F734C
:1016F00061E00E94F01318C080E49CE905C080916D
:1017000084009091850004969093890080938800CE
:101710008FEF8093F00408C0809184009091850041
:1017200084549C4948F3EBCFFF91EF91BF91AF9167
:101730009F918F917F916F915F914F913F912F91E9
:101740000F900FBE0F901F9018950F931F93CF937C
:10175000DF93FC01838DA685B7859585082F0270E0
:1017600081FF05C08C91892309F454C004C08C9179
:10177000892309F04FC08389948920E001972FEFD6
:101780008F3F9207D9F7C589D689A685B785758514
:1017900060E031E040E050E010E0CE01212F019701
:1017A0002FEF8F3F9207D9F78C91872311F0632B8E
:1017B00003C0832F80956823330F4F5F5F4F4830FE
:1017C000510559F78789908D20E001972FEF8F3FC2
:1017D0009207D9F701116095809133052091340566
:1017E00090E001968F73907030E08217930779F044
:1017F000E0913305F0E0ED50FB4F608380913305BD
:1018000090E001968F7390708093330503C0838DB1
:101810008160838FDF91CF911F910F910895809107
:10182000F1049091F204009711F00E94A50B089525
:101830001F920F920FB60F9211242F933F934F9345
:101840005F936F937F938F939F93AF93BF93EF9328
:10185000FF930E940F0CFF91EF91BF91AF919F9169
:101860008F917F916F915F914F913F912F910F9049
:101870000FBE0F901F9018951F920F920FB60F92E8
:1018800011242F933F934F935F936F937F938F9385
:101890009F93AF93BF93EF93FF930E940F0CFF9121
:1018A000EF91BF91AF919F918F917F916F915F91D8
:1018B0004F913F912F910F900FBE0F901F90189551
:1018C0001F920F920FB60F9211242F933F934F93B5
:1018D0005F936F937F938F939F93AF93BF93EF9398
:1018E000FF930E940F0CFF91EF91BF91AF919F91D9
:1018F0008F917F916F915F914F913F912F910F90B9
:101900000FBE0F901F9018952091560530E08091E2
:101910005505281B3109C90108954091550580914D
:101920005605481718F02FEF3FEF0AC0E42FF0E0FC
:10193000EB5CFA4F8081282F30E04F5F40935505D4
:10194000C9010895E091550580915605E81718F0F2
:10195000EFEFFFEF06C0F0E0EB5CFA4F8081E82F7D
:10196000F0E0CF0108950895AC0120917C053091FD
:101970007D0521153105E1F09091550580915605C1
:101980009817B0F090E008C0FA01EA0FFB1F8081C1
:10199000AB5CBA4F8C939F5FA92FB0E0A617B70737
:1019A0009CF31092550560935605CB01F9010995FA
:1019B0000895E0917A05F0917B05309729F0109217
:1019C0007705109278050995089570937D056093C9
:1019D0007C050895109281051092800588EE93E0B1
:1019E000A0E0B0E08093820590938305A0938405E6
:1019F000B09385058AEC91E090937F0580937E05F6
:101A00000895CF92DF92EF92FF920F931F93CF939F
:101A1000DF937C016B018A01809179058823A1F015
:101A2000C0E0D0E00DC0D701ED91FC91D601AC0F24
:101A3000BD1F0190F081E02DC7016C9109952196A1
:101A4000C017D10780F304C0CB01642F0E94880D1A
:101A5000C801DF91CF911F910F91FF90EF90DF9020
:101A6000CF900895DF93CF930F92CDB7DEB7FC01EF
:101A70006983809179058823C9F080917805803247
:101A800038F081E090E09383828320E030E015C05D
:101A900080917705E82FF0E0E95AFA4F9981908319
:101AA0008F5F809377058093780505C0CE010196FE
:101AB00061E00E94880D21E030E0C9010F90CF91D4
:101AC000DF910895109255051092560510927705F2
:101AD000109278050E94280F08950F931F938C0190
:101AE000862F0E94840D89ED9CE00E94A80D84EB56
:101AF0009CE00E94A30DC8010E94620D1F910F91EE
:101B000008950E946D0D0895880F8093BA0008957E
:101B1000482F613210F081E0089580918A05843069
:101B200011F082E008956093D305A2EBB5E0842F15
:101B30009C01F90102C081918D938E2F841B861721
:101B4000D0F380E0089590938F0580938E050895DB
:101B500090938D0580938C0508951F920F920FB678
:101B60000F9211242F933F934F935F936F937F9323
:101B70008F939F93AF93BF93EF93FF938091B9009F
:101B800090E0887F90708036910509F4DCC0813642
:101B90009105CCF58832910509F47BC08932910515
:101BA000B4F48031910509F46FC0813191053CF4A2
:101BB000009709F431C1089709F039C165C088312F
:101BC000910509F466C0809709F031C17DC0803469
:101BD000910509F49FC08134910544F48033910547
:101BE00009F47DC0C89709F022C184C080359105F1
:101BF00009F484C08835910509F491C088349105B1
:101C000009F015C198C08839910509F4FDC08939DA
:101C10009105ECF48837910509F495C08937910551
:101C20004CF48836910509F48EC08037910509F08F
:101C3000FEC089C08838910509F4E6C08039910555
:101C400009F487C08038910509F0F1C082C0803B5B
:101C5000910509F4B0C0813B91054CF4803A91059F
:101C600009F489C0883A910509F0E1C0A4C0803C1C
:101C7000910509F4CDC0883C910509F4C9C0883BA1
:101C8000910509F0D4C0ACC080918B058093BB0056
:101C9000B9C09091B0058091B105981768F4909102
:101CA000B005E92FF0E0E057FA4F80818093BB0048
:101CB0009F5F9093B005A6C085ED8093BC00809196
:101CC000BC0084FDFCCFB1C080E28093F50585EDBA
:101CD0008093BC008091BC0084FDFCCFA6C080E353
:101CE0008093F50585ED8093BC008091BC0084FD58
:101CF000FCCF9BC088E38093F5058AC08091B00536
:101D00009091BB00E82FF0E0E057FA4F90838F5F8F
:101D10008093B0059091B0058091B10571C080911C
:101D2000B0059091BB00E82FF0E0E057FA4F9083A8
:101D30008F5F8093B00585ED8093BC008091BC00DF
:101D400084FDFCCF72C083E080938A051092F40575
:101D500059C08091F405803208F056C08091F40596
:101D60009091BB00E82FF0E0EC52FA4F90838F5F28
:101D70008093F40547C08091F405803230F4E091FF
:101D8000F405F0E0EC52FA4F108285ED8093BC0030
:101D90008091BC0084FDFCCF10928A056091F4050F
:101DA000E0918E05F0918F0584ED95E070E0099546
:101DB0001092F4052DC084E080938A051092D2051C
:101DC0001092D305E0918C05F0918D0509958091D5
:101DD000D305882329F481E08093D3051092B205BE
:101DE0009091D205E92FF0E0EE54FA4F8081809374
:101DF000BB009F5F9093D2059091D2058091D3054F
:101E0000981710F485EC01C085E88093BC000FC0E2
:101E100085EC8093BC0009C01092F50585ED809398
:101E2000BC008091BC0084FDFCCF10928A05FF911C
:101E3000EF91BF91AF919F918F917F916F915F9142
:101E40004F913F912F910F900FBE0F901F901895BB
:101E500010928A0582E161E00E94F01383E161E063
:101E60000E94F013E9EBF0E080818E7F8083808117
:101E70008D7F808388E48093B80085E48093BC00E4
:101E8000089508951F920F920FB60F9211242F9369
:101E90003F934F938F939F93EF93FF934091C6008F
:101EA00020913606309137062F5F3F4F2F733070E9
:101EB00080913806909139062817390759F0E0913A
:101EC0003606F0913706EA50FA4F408330933706D2
:101ED00020933606FF91EF919F918F914F913F9103
:101EE0002F910F900FBE0F901F901895E0918A06CA
:101EF000F0918B06E05CFF4F8191919120813181BF
:101F0000821B930B8F739070892B11F00E94410FED
:101F100008951F920F920FB60F9211242F933F93A3
:101F20004F935F936F937F938F939F93AF93BF93E1
:101F3000EF93FF9320917A0630917B0680917C0687
:101F400090917D062817390731F48091C1008F7D6B
:101F50008093C10016C0E0917C06F0917D06E65C9E
:101F6000F94F408180917C0690917D06019660E456
:101F700070E00E94421490937D0680937C0640930B
:101F8000C600FF91EF91BF91AF919F918F917F918B
:101F90006F915F914F913F912F910F900FBE0F90D6
:101FA0001F901895DC011C96ED91FC911D97E05C4B
:101FB000FF4F2191319180819181281B390B2F7323
:101FC0003070C9010895DC011C96ED91FC911D97BC
:101FD000E05CFF4F20813181E054F040DF01AE5BD7
:101FE000BF4F8D919C9111972817390719F42FEF46
:101FF0003FEF07C08D919C91E80FF91F8081282F3A
:1020000030E0C9010895DC011C96ED91FC911D970B
:10201000E05CFF4F20813181E054F040DF01AE5B96
:10202000BF4F8D919C9111972817390719F42FEF05
:102030003FEF10C08D919C911197E80FF91F2081FF
:102040008D919C91119701968F73907011969C932E
:102050008E9330E0C9010895FC0186859785DC01E7
:10206000A05CBF4FFC01EE5BFF4F2D913C9111979F
:102070008081918128173907C1F70895CF93DF93A5
:10208000EC01462FEE85FF85E05CFF4F808191815A
:10209000E054F040019660E470E00E9442149C011C
:1020A000DF01AE5BBF4F8D919C91119728173907C7
:1020B000D1F3E05CFF4F80819181E054F040E80F64
:1020C000F91F4083EE85FF85E05CFF4F318320835D
:1020D000EE89FF89208181E090E00D8C02C0880F9D
:1020E000991F0A94E2F7282B208381E090E0DF918A
:1020F000CF910895109281061092800688EE93E0A9
:10210000A0E0B0E08093820690938306A0938406BB
:10211000B09385068AED91E090937F0680937E06CA
:1021200086EF95E090938B0680938A068AE396E08B
:1021300090938D0680938C0685EC90E090938F06AB
:1021400080938E0684EC90E09093910680939006A5
:1021500080EC90E0909393068093920681EC90E05F
:10216000909395068093940686EC90E09093970662
:102170008093960684E08093980683E08093990686
:1021800087E080939A0685E080939B0681E08093A8
:102190009C0608950F93FC018AEE91E09183808361
:1021A00062834383248305830F9108958AEE91E02F
:1021B00090939E0680939D0610929F061092A00613
:1021C0001092A1061092A20608958F929F92AF924C
:1021D000BF92CF92DF92EF92FF920F931F93CF9314
:1021E000DF934C016B017C01AA24BB24C0E0D0E04A
:1021F000C601F70162814AE050E00E940A128C0198
:10220000C6016EE20E945B11080F191FA00EB11EDD
:1022100021960894E11CF11CC330D10549F7C60191
:10222000F40165814AE050E00E940A129501280FEE
:10223000391FC901DF91CF911F910F91FF90EF904E
:10224000DF90CF90BF90AF909F908F900895FC014A
:102250008AEE91E091838083128213821482158228
:102260000895CF92DF92EF92FF920F931F93CF9337
:10227000DF937C016B018A01C0E0D0E00FC0D60182
:102280006D916D01D701ED91FC910190F081E02DF0
:10229000C7010995C80FD91F01501040011511053C
:1022A00071F7CE01DF91CF911F910F91FF90EF90C9
:1022B000DF90CF900895DC01ED91FC910190F081C9
:1022C000E02D09950895EF92FF920F931F938C01D3
:1022D000DC01ED91FC910190F081E02D6DE009951C
:1022E0007C01D801ED91FC910190F081E02DC801B5
:1022F0006AE009959C012E0D3F1DC9011F910F91A8
:10230000FF90EF900895CF93DF93DB010D900020B5
:10231000E9F71197A61BB70BEC01E881F981028060
:10232000F381E02DAD010995DF91CF9108954F9292
:102330005F927F928F929F92AF92BF92CF92DF92E5
:10234000EF92FF920F931F93DF93CF93CDB7DEB73A
:10235000A1970FB6F894DEBF0FBECDBF2C01742E2F
:10236000CB01223008F42AE019A231E2C32ED12C8D
:10237000CC0EDD1E822E9924AA24BB24672D752F36
:10238000A50194010E94551479018A01C801B70181
:10239000A50194010E942314472D461B0894C108EF
:1023A000D1084A3014F4405D01C0495CF601408315
:1023B000E114F1040105110521F07E2C5F2DC80107
:1023C000DDCFC201B6010E948311A1960FB6F89429
:1023D000DEBF0FBECDBFCF91DF911F910F91FF9058
:1023E000EF90DF90CF90BF90AF909F908F907F90B5
:1023F0005F904F900895DC012115310541F4ED9176
:10240000FC910190F081E02D642F099508950E94C0
:1024100097110895EF92FF920F931F939A01E62E62
:10242000FF2400E010E0B801A7010E94FB111F91FA
:102430000F91FF90EF900895EF92FF920F931F93EB
:102440007C010E9483118C01C7010E946311080F57
:10245000191FC8011F910F91FF90EF900895CF931E
:10246000DF930E94E0120E948901C6E7DFE00E942C
:1024700084012097E1F30E94760FF9CF1F920F920B
:102480000FB60F9211242F933F938F939F93AF9387
:10249000BF938091A7069091A806A091A906B0913C
:1024A000AA063091AB060196A11DB11D232F2D5F09
:1024B0002D3720F02D570196A11DB11D2093AB069D
:1024C0008093A7069093A806A093A906B093AA06A6
:1024D0008091A3069091A406A091A506B091A606AE
:1024E0000196A11DB11D8093A3069093A406A0930D
:1024F000A506B093A606BF91AF919F918F913F9192
:102500002F910F900FBE0F901F9018958FB7F894D2
:102510002091A7063091A8064091A9065091AA06DD
:102520008FBFB901CA0108959FB7F8942091A306FF
:102530003091A4064091A5065091A60686B5A89BA9
:1025400006C08F3F21F02F5F3F4F4F4F5F4F9FBF20
:10255000542F432F322F2227280F311D411D511D8B
:1025600082E0220F331F441F551F8A95D1F7B9010E
:10257000CA010895EF92FF920F931F93CF93DF93B9
:102580007B018C010E949412EB010EC00E949412F8
:102590006C1B7D0B685E7340C8F30894E108F1087A
:1025A00001091109C851DC4FE114F10401051105BD
:1025B00069F7DF91CF911F910F91FF90EF900895F0
:1025C000789484B5826084BD84B5816084BD85B50E
:1025D000826085BD85B5816085BDEEE6F0E08081D5
:1025E00081608083E1E8F0E01082808182608083F6
:1025F000808181608083E0E8F0E080818160808379
:10260000E1EBF0E0808184608083E0EBF0E08081AA
:1026100081608083EAE7F0E080818460808380814C
:1026200082608083808181608083808180688083F4
:102630001092C1000895982F8E3008F09E50977028
:1026400080919F018295880F880F807C892B8093D1
:102650007C0080917A00806480937A0080917A0077
:1026600086FDFCCF2091780040917900942F80E086
:1026700030E0282B392BC90108951F93CF93DF93A6
:10268000182FEB0161E00E949D13209709F44AC0C6
:10269000CF3FD10509F449C0E12FF0E0E255FF4FEB
:1026A00084918330C1F0843028F4813051F082303D
:1026B000B1F50CC0863019F1873049F1843079F5D5
:1026C00014C084B5806884BDC7BD33C084B5806242
:1026D00084BDC8BD2EC0809180008068809380003A
:1026E000D0938900C093880024C0809180008062CC
:1026F00080938000D0938B00C0938A001AC0809191
:10270000B00080688093B000C093B30012C0809185
:10271000B00080628093B000C093B4000AC0C0389B
:10272000D1051CF4812F60E002C0812F61E00E947E
:10273000F013DF91CF911F910895482F50E0CA0107
:1027400086569F4FFC0124914A575F4FFA018491AE
:102750008823C1F0E82FF0E0EE0FFF1FE859FF4F8C
:10276000A591B491662341F49FB7F8948C9120957C
:1027700082238C939FBF08959FB7F8948C91822BEE
:102780008C939FBF0895833071F0843028F481309A
:10279000A1F0823021F514C08630B1F08730D1F03D
:1027A0008430E9F404C0809180008F7703C0809169
:1027B00080008F7D80938000089584B58F7702C05C
:1027C00084B58F7D84BD08958091B0008F7780930C
:1027D000B00008958091B0008F7D8093B00008957F
:1027E000FF920F931F93F62E482F50E0CA01825597
:1027F0009F4FFC012491CA0186569F4FFC01149102
:102800004A575F4FFA0104910023C9F0222319F0BF
:10281000822F0E94C313E02FF0E0EE0FFF1FEE584F
:10282000FF4FA591B4919FB7F894FF2021F48C91AC
:102830001095812302C08C91812B8C939FBF1F9197
:102840000F91FF900895629FD001739FF001829FC6
:10285000E00DF11D649FE00DF11D929FF00D839F2F
:10286000F00D749FF00D659FF00D9927729FB00DCC
:10287000E11DF91F639FB00DE11DF91FBD01CF01DF
:102880001124089597FB092E07260AD077FD04D05E
:102890002ED006D000201AF4709561957F4F0895D0
:1028A000F6F7909581959F4F0895A1E21A2EAA1BE5
:1028B000BB1BFD010DC0AA1FBB1FEE1FFF1FA217F0
:1028C000B307E407F50720F0A21BB30BE40BF50BED
:1028D000661F771F881F991F1A9469F76095709576
:1028E000809590959B01AC01BD01CF010895AA1B75
:1028F000BB1B51E107C0AA1FBB1FA617B70710F0EB
:10290000A61BB70B881F991F5A95A9F7809590951C
:10291000BC01CD010895EE0FFF1F0590F491E02D4D
:062920000994F894FFCFBA
:102926007465737400636D642052454348545300C4
:10293600636D64204C494E4B5300636D64205255C1
:1029460045434B00636D6420564F5200636D64200F
:1029560053544F5000696C6C6567616C20737769DE
:102966007463682076616C75653A20627574746F5D
:102976006E2072656C6561736500696C6C65676174
:102986006C207377697463682076616C75653A208C
:10299600636F756C64206E6F74206964656E74690C
:1029A60079207072657373656420627574746F6ED6
:1029B600003200B40068016C028403FFFFFFFF01D0
:1029C60000000000A300AD02990000000000CE0048
:1029D600AD02C400000000009102AD029F0200009B
:1029E60000004308311100000000320D010D840C77
:1029F6008D0CA20CB30C000000003E103111D20F5A
:0C2A06000310E30F2C1000000000E5108E
:00000001FF
